{
  "contractName": "Coverage",
  "abi": [
    {
      "inputs": [],
      "payable": false,
      "stateMutability": "nonpayable",
      "type": "constructor"
    },
    {
      "constant": true,
      "inputs": [],
      "name": "coverageContractAddress",
      "outputs": [
        {
          "internalType": "address",
          "name": "",
          "type": "address"
        }
      ],
      "payable": false,
      "stateMutability": "view",
      "type": "function"
    },
    {
      "constant": false,
      "inputs": [
        {
          "internalType": "uint256",
          "name": "amount",
          "type": "uint256"
        },
        {
          "internalType": "address payable",
          "name": "_reciever",
          "type": "address"
        }
      ],
      "name": "payFranchise",
      "outputs": [],
      "payable": true,
      "stateMutability": "payable",
      "type": "function"
    }
  ],
  "bytecode": "0x608060405234801561001057600080fd5b50306000806101000a81548173ffffffffffffffffffffffffffffffffffffffff021916908373ffffffffffffffffffffffffffffffffffffffff160217905550610178806100606000396000f3fe6080604052600436106100295760003560e01c80635730013e1461002e57806372629b2414610085575b600080fd5b34801561003a57600080fd5b506100436100d3565b604051808273ffffffffffffffffffffffffffffffffffffffff1673ffffffffffffffffffffffffffffffffffffffff16815260200191505060405180910390f35b6100d16004803603604081101561009b57600080fd5b8101908080359060200190929190803573ffffffffffffffffffffffffffffffffffffffff1690602001909291905050506100f8565b005b6000809054906101000a900473ffffffffffffffffffffffffffffffffffffffff1681565b8073ffffffffffffffffffffffffffffffffffffffff166108fc839081150290604051600060405180830381858888f1935050505015801561013e573d6000803e3d6000fd5b50505056fea265627a7a723158207b09637962806406c966de0da3a595d517f66b338045ab732e392d4bc665cba164736f6c63430005100032",
  "source": "// SPDX-License-Identifier: MIT\npragma solidity >=0.4.22 <0.9.0;\n\ncontract Insurance {\n\n    // DATA STRUCTURES //\n\n    struct Policy {\n    string name;\n    uint coverage;\n    uint annualPrice;\n    }\n\n    struct Center {\n    string name;\n    string addr;\n    address wallet;\n    }\n\n    struct Person {\n    string firstName;\n    string lastName;\n    string ssid;\n    uint256 policyID;\n    }\n\n    address public owner;\n    address public contractAddress;\n\n    // lists and mappings //\n    mapping(uint => Policy) public policies;\n    mapping(address => Center) public centers;\n    mapping(address => Person) public insurees;\n\n\n    uint public centerCount = 0;\n    uint public policyCount = 0;\n    uint private people = 0;\n\n    // MODIFIERS //\n    modifier onlyOwner {\n        require(msg.sender == owner);\n        _;\n    }\n\n    modifier notOwner {\n        require(msg.sender != owner);\n        _;\n    }\n\n    modifier onlyCenter {\n        require(centers[msg.sender].wallet == msg.sender);\n        _;\n    }\n\n    // Logic and Functions //\n    constructor() public {\n    owner = address(msg.sender);\n    contractAddress = address(this);\n    }\n\n    function addPolicy( string memory _policyName, uint256 _percentage, uint _annualPrice) public onlyOwner {\n      policyCount ++;\n      Policy memory _policy = Policy( _policyName, _percentage, _annualPrice);\n      policies[policyCount] = _policy;\n\n    }\n\n    function getOwner() public view returns(address _owner) {\n      _owner = owner;\n    }\n\n    // function getPolicyByID(uint256 _id) public view returns ( Policy _policy){\n    //     require(_id <= policyCount);\n    //     _policy = policies[_id];\n    //     return _policy;\n    // }\n\n\n    function addCenter(\n      string memory _name,\n      string memory _addr,\n      address _wallet )\n      public\n      onlyOwner {\n        centerCount ++;\n        centers[_wallet] = Center(_name, _addr, _wallet);\n\n    }\n\n  function register(\n    string memory _firstName,\n    string memory _lastName,\n    string memory _ssid,\n    uint policyNumber )\n    public\n    payable\n    notOwner {\n\n        require(policyNumber <= policyCount);\n        people ++;\n        msg.sender.transfer(policies[policyNumber].annualPrice);\n        insurees[msg.sender] = Person(_firstName, _lastName, _ssid, policyNumber);\n  }\n\n\n\n    address coverageAddress;\n\n    function setSendMoneyAddress(address _coverageAddress) public {\n        coverageAddress = _coverageAddress;\n    }\n\n    function coverAlibi(uint totalAmount, address _insuree) external payable onlyCenter {\n        Coverage coverage = Coverage(coverageAddress);\n        uint _amount = totalAmount*policies[insurees[_insuree].policyID].coverage/100;\n        coverage.payFranchise(_amount, msg.sender);\n    }\n}\n\ncontract Coverage {\n\n  address public coverageContractAddress;\n\n  constructor() public {\n    coverageContractAddress = address(this);\n  }\n\n   function payFranchise(uint amount, address payable _reciever) external payable{\n       _reciever.transfer(amount);\n   }\n\n}\n",
  "sourcePath": "/Users/damoon/Programs/insurance/contracts/Insurance.sol",
  "compiler": {
    "name": "solc",
    "version": "0.5.16+commit.9c3226ce.Emscripten.clang"
  },
  "schemaVersion": "3.4.1",
  "updatedAt": "2021-07-23T11:47:21.524Z",
  "networkType": "ethereum",
  "devdoc": {
    "methods": {}
  },
  "userdoc": {
    "methods": {}
  }
}